{
  "_format": "hh-sol-artifact-1",
  "contractName": "OptimismResolverStub",
  "sourceName": "contracts/l1/OptimismResolverStub.sol",
  "abi": [
    {
      "inputs": [
        {
          "internalType": "address",
          "name": "ovmAddressManager",
          "type": "address"
        },
        {
          "internalType": "string",
          "name": "_gateway",
          "type": "string"
        },
        {
          "internalType": "address",
          "name": "_l2resolver",
          "type": "address"
        }
      ],
      "stateMutability": "nonpayable",
      "type": "constructor"
    },
    {
      "inputs": [
        {
          "internalType": "bytes32",
          "name": "node",
          "type": "bytes32"
        }
      ],
      "name": "addr",
      "outputs": [
        {
          "internalType": "bytes",
          "name": "prefix",
          "type": "bytes"
        },
        {
          "internalType": "string",
          "name": "url",
          "type": "string"
        }
      ],
      "stateMutability": "view",
      "type": "function"
    },
    {
      "inputs": [
        {
          "internalType": "bytes32",
          "name": "node",
          "type": "bytes32"
        },
        {
          "components": [
            {
              "internalType": "bytes32",
              "name": "stateRoot",
              "type": "bytes32"
            },
            {
              "components": [
                {
                  "internalType": "uint256",
                  "name": "batchIndex",
                  "type": "uint256"
                },
                {
                  "internalType": "bytes32",
                  "name": "batchRoot",
                  "type": "bytes32"
                },
                {
                  "internalType": "uint256",
                  "name": "batchSize",
                  "type": "uint256"
                },
                {
                  "internalType": "uint256",
                  "name": "prevTotalElements",
                  "type": "uint256"
                },
                {
                  "internalType": "bytes",
                  "name": "extraData",
                  "type": "bytes"
                }
              ],
              "internalType": "struct Lib_OVMCodec.ChainBatchHeader",
              "name": "stateRootBatchHeader",
              "type": "tuple"
            },
            {
              "components": [
                {
                  "internalType": "uint256",
                  "name": "index",
                  "type": "uint256"
                },
                {
                  "internalType": "bytes32[]",
                  "name": "siblings",
                  "type": "bytes32[]"
                }
              ],
              "internalType": "struct Lib_OVMCodec.ChainInclusionProof",
              "name": "stateRootProof",
              "type": "tuple"
            },
            {
              "internalType": "bytes",
              "name": "stateTrieWitness",
              "type": "bytes"
            },
            {
              "internalType": "bytes",
              "name": "storageTrieWitness",
              "type": "bytes"
            }
          ],
          "internalType": "struct OptimismResolverStub.L2StateProof",
          "name": "proof",
          "type": "tuple"
        }
      ],
      "name": "addrWithProof",
      "outputs": [
        {
          "internalType": "address",
          "name": "",
          "type": "address"
        }
      ],
      "stateMutability": "view",
      "type": "function"
    },
    {
      "inputs": [],
      "name": "gateway",
      "outputs": [
        {
          "internalType": "string",
          "name": "",
          "type": "string"
        }
      ],
      "stateMutability": "view",
      "type": "function"
    },
    {
      "inputs": [],
      "name": "l2resolver",
      "outputs": [
        {
          "internalType": "address",
          "name": "",
          "type": "address"
        }
      ],
      "stateMutability": "view",
      "type": "function"
    },
    {
      "inputs": [],
      "name": "libAddressManager",
      "outputs": [
        {
          "internalType": "contract Lib_AddressManager",
          "name": "",
          "type": "address"
        }
      ],
      "stateMutability": "view",
      "type": "function"
    },
    {
      "inputs": [
        {
          "internalType": "string",
          "name": "_name",
          "type": "string"
        }
      ],
      "name": "resolve",
      "outputs": [
        {
          "internalType": "address",
          "name": "",
          "type": "address"
        }
      ],
      "stateMutability": "view",
      "type": "function"
    }
  ],
  "bytecode": "0x60806040523480156200001157600080fd5b506040516200397c3803806200397c83398181016040528101906200003791906200038e565b82806000806101000a81548173ffffffffffffffffffffffffffffffffffffffff021916908373ffffffffffffffffffffffffffffffffffffffff16021790555050816001908051906020019062000091929190620000dc565b5080600260006101000a81548173ffffffffffffffffffffffffffffffffffffffff021916908373ffffffffffffffffffffffffffffffffffffffff1602179055505050506200046e565b828054620000ea9062000438565b90600052602060002090601f0160209004810192826200010e57600085556200015a565b82601f106200012957805160ff19168380011785556200015a565b828001600101855582156200015a579182015b82811115620001595782518255916020019190600101906200013c565b5b5090506200016991906200016d565b5090565b5b80821115620001885760008160009055506001016200016e565b5090565b6000604051905090565b600080fd5b600080fd5b600073ffffffffffffffffffffffffffffffffffffffff82169050919050565b6000620001cd82620001a0565b9050919050565b620001df81620001c0565b8114620001eb57600080fd5b50565b600081519050620001ff81620001d4565b92915050565b600080fd5b600080fd5b6000601f19601f8301169050919050565b7f4e487b7100000000000000000000000000000000000000000000000000000000600052604160045260246000fd5b6200025a826200020f565b810181811067ffffffffffffffff821117156200027c576200027b62000220565b5b80604052505050565b6000620002916200018c565b90506200029f82826200024f565b919050565b600067ffffffffffffffff821115620002c257620002c162000220565b5b620002cd826200020f565b9050602081019050919050565b60005b83811015620002fa578082015181840152602081019050620002dd565b838111156200030a576000848401525b50505050565b6000620003276200032184620002a4565b62000285565b9050828152602081018484840111156200034657620003456200020a565b5b62000353848285620002da565b509392505050565b600082601f83011262000373576200037262000205565b5b81516200038584826020860162000310565b91505092915050565b600080600060608486031215620003aa57620003a962000196565b5b6000620003ba86828701620001ee565b935050602084015167ffffffffffffffff811115620003de57620003dd6200019b565b5b620003ec868287016200035b565b9250506040620003ff86828701620001ee565b9150509250925092565b7f4e487b7100000000000000000000000000000000000000000000000000000000600052602260045260246000fd5b600060028204905060018216806200045157607f821691505b6020821081141562000468576200046762000409565b5b50919050565b6134fe806200047e6000396000f3fe608060405234801561001057600080fd5b50600436106100625760003560e01c8063116191b614610067578063299ca478146100855780633b3b57de146100a3578063461a4478146100d45780637a1dc07014610104578063d1aab3f414610122575b600080fd5b61006f610152565b60405161007c9190611c94565b60405180910390f35b61008d6101e0565b60405161009a9190611d35565b60405180910390f35b6100bd60048036038101906100b89190611d9a565b610204565b6040516100cb929190611e1c565b60405180910390f35b6100ee60048036038101906100e99190611f88565b610314565b6040516100fb9190611ff2565b60405180910390f35b61010c6103c7565b6040516101199190611ff2565b60405180910390f35b61013c600480360381019061013791906123c6565b6103ed565b6040516101499190611ff2565b60405180910390f35b6001805461015f90612451565b80601f016020809104026020016040519081016040528092919081815260200182805461018b90612451565b80156101d85780601f106101ad576101008083540402835291602001916101d8565b820191906000526020600020905b8154815290600101906020018083116101bb57829003601f168201915b505050505081565b60008054906101000a900473ffffffffffffffffffffffffffffffffffffffff1681565b60608063d1aab3f460e01b836040516024016102209190612492565b604051602081830303815290604052907bffffffffffffffffffffffffffffffffffffffffffffffffffffffff19166020820180517bffffffffffffffffffffffffffffffffffffffffffffffffffffffff8381831617835250505050600180805461028b90612451565b80601f01602080910402602001604051908101604052809291908181526020018280546102b790612451565b80156103045780601f106102d957610100808354040283529160200191610304565b820191906000526020600020905b8154815290600101906020018083116102e757829003601f168201915b5050505050905091509150915091565b60008060009054906101000a900473ffffffffffffffffffffffffffffffffffffffff1673ffffffffffffffffffffffffffffffffffffffff1663bf40fac1836040518263ffffffff1660e01b81526004016103709190611c94565b60206040518083038186803b15801561038857600080fd5b505afa15801561039c573d6000803e3d6000fd5b505050506040513d601f19601f820116820180604052508101906103c091906124d9565b9050919050565b600260009054906101000a900473ffffffffffffffffffffffffffffffffffffffff1681565b60006103f8826104a4565b610437576040517f08c379a000000000000000000000000000000000000000000000000000000000815260040161042e90612552565b60405180910390fd5b600083600160405160200161044d9291906125b4565b6040516020818303038152906040528051906020012090506000610494600260009054906101000a900473ffffffffffffffffffffffffffffffffffffffff168386610588565b90508060001c9250505092915050565b6000806104e56040518060400160405280601481526020017f5374617465436f6d6d69746d656e74436861696e000000000000000000000000815250610314565b90508073ffffffffffffffffffffffffffffffffffffffff16634d69ee578460000151856020015186604001516040518463ffffffff1660e01b8152600401610530939291906127aa565b60206040518083038186803b15801561054857600080fd5b505afa15801561055c573d6000803e3d6000fd5b505050506040513d601f19601f820116820180604052508101906105809190612827565b915050919050565b60008060006105bf866040516020016105a1919061289c565b604051602081830303815290604052856060015186600001516106a8565b9150915081610603576040517f08c379a00000000000000000000000000000000000000000000000000000000081526004016105fa90612903565b60405180910390fd5b600061060e826106d1565b9050600080610645886040516020016106279190612923565b604051602081830303815290604052886080015185604001516106a8565b9150915081610689576040517f08c379a00000000000000000000000000000000000000000000000000000000081526004016106809061298a565b60405180910390fd5b61069a6106958261079b565b6107b5565b955050505050509392505050565b6000606060006106b7866107e9565b90506106c4818686610819565b9250925050935093915050565b6106d9611b99565b60006106e4836108f2565b9050604051806080016040528061071583600081518110610708576107076129aa565b5b602002602001015161090c565b815260200161073e83600181518110610731576107306129aa565b5b602002602001015161090c565b81526020016107678360028151811061075a576107596129aa565b5b6020026020010151610921565b815260200161079083600381518110610783576107826129aa565b5b6020026020010151610921565b815250915050919050565b60606107ae6107a983610a23565b610a51565b9050919050565b60008060006020845111156107cb5760206107ce565b83515b90506020840151600882602003021c91508192505050919050565b606081805190602001206040516020016108039190612923565b6040516020818303038152906040529050919050565b60006060600061082885610ae7565b9050600080600061083a848a89610bdc565b925092509250600080835114905080806108515750815b610890576040517f08c379a000000000000000000000000000000000000000000000000000000000815260040161088790612a25565b60405180910390fd5b6000816108ac57604051806020016040528060008152506108dc565b6108db866001876108bd9190612a74565b815181106108ce576108cd6129aa565b5b602002602001015161104d565b5b9050818197509750505050505050935093915050565b606061090561090083610a23565b61108e565b9050919050565b600061091782610921565b60001c9050919050565b600060218260000151111561096b576040517f08c379a000000000000000000000000000000000000000000000000000000000815260040161096290612af4565b60405180910390fd5b600080600061097985611285565b9250925092506000600181111561099357610992612b14565b5b8160018111156109a6576109a5612b14565b5b146109e6576040517f08c379a00000000000000000000000000000000000000000000000000000000081526004016109dd90612af4565b60405180910390fd5b60008386602001516109f89190612b43565b90506000815190506020841015610a1657836020036101000a810490505b8095505050505050919050565b610a2b611bc7565b600060208301905060405180604001604052808451815260200182815250915050919050565b60606000806000610a6185611285565b92509250925060006001811115610a7b57610a7a612b14565b5b816001811115610a8e57610a8d612b14565b5b14610ace576040517f08c379a0000000000000000000000000000000000000000000000000000000008152600401610ac590612be5565b60405180910390fd5b610add8560200151848461159e565b9350505050919050565b60606000610af4836108f2565b90506000815167ffffffffffffffff811115610b1357610b12611e5d565b5b604051908082528060200260200182016040528015610b4c57816020015b610b39611be1565b815260200190600190039081610b315790505b50905060005b8251811015610bd1576000610b80848381518110610b7357610b726129aa565b5b6020026020010151610a51565b90506040518060400160405280828152602001610b9c836108f2565b815250838381518110610bb257610bb16129aa565b5b6020026020010181905250508080610bc990612c05565b915050610b52565b508092505050919050565b60006060600080600090506000610bf2876116a4565b90506000869050600080610c04611be1565b60005b8c51811015610ffd578c8181518110610c2357610c226129aa565b5b602002602001015191508284610c399190612b43565b9350600187610c489190612b43565b96506000841415610ca5578482600001518051906020012014610ca0576040517f08c379a0000000000000000000000000000000000000000000000000000000008152600401610c9790612c9a565b60405180910390fd5b610d54565b602082600001515110610d04578482600001518051906020012014610cff576040517f08c379a0000000000000000000000000000000000000000000000000000000008152600401610cf690612d06565b60405180910390fd5b610d53565b84610d128360000151611849565b14610d52576040517f08c379a0000000000000000000000000000000000000000000000000000000008152600401610d4990612d72565b60405180910390fd5b5b5b60016010610d629190612b43565b8260200151511415610ddd578551841415610d7c57610ffd565b6000868581518110610d9157610d906129aa565b5b602001015160f81c60f81b60f81c9050600083602001518260ff1681518110610dbd57610dbc6129aa565b5b60200260200101519050610dd081611883565b9650600194505050610fea565b60028260200151511415610faf576000610df6836118c1565b9050600081600081518110610e0e57610e0d6129aa565b5b602001015160f81c60f81b60f81c90506000600282610e2d9190612dce565b6002610e399190612dff565b90506000610e4a848360ff166118fa565b90506000610e588b8a6118fa565b90506000610e66838361193b565b9050600260ff168560ff161480610e835750600360ff168560ff16145b15610ee057808351148015610e985750808251145b15610eac57808a610ea99190612b43565b99505b608060f81b7effffffffffffffffffffffffffffffffffffffffffffffffffffffffffffff19169a50505050505050610ffd565b600060ff168560ff161480610efb5750600160ff168560ff16145b15610f745782518114610f3c57608060f81b7effffffffffffffffffffffffffffffffffffffffffffffffffffffffffffff19169a50505050505050610ffd565b610f648860200151600181518110610f5757610f566129aa565b5b6020026020010151611883565b9a50809850505050505050610fea565b6040517f08c379a0000000000000000000000000000000000000000000000000000000008152600401610fa690612ea5565b60405180910390fd5b6040517f08c379a0000000000000000000000000000000000000000000000000000000008152600401610fe190612f11565b60405180910390fd5b8080610ff590612c05565b915050610c07565b506000608060f81b7effffffffffffffffffffffffffffffffffffffffffffffffffffffffffffff1916851490508661103687866118fa565b829950995099505050505050505093509350939050565b6060611087826020015160018460200151516110699190612a74565b8151811061107a576110796129aa565b5b6020026020010151610a51565b9050919050565b606060008061109c84611285565b92505091506001808111156110b4576110b3612b14565b5b8160018111156110c7576110c6612b14565b5b14611107576040517f08c379a00000000000000000000000000000000000000000000000000000000081526004016110fe90612f7d565b60405180910390fd5b6000602067ffffffffffffffff81111561112457611123611e5d565b5b60405190808252806020026020018201604052801561115d57816020015b61114a611bc7565b8152602001906001900390816111425790505b5090506000808490505b866000015181101561127557602082106111b6576040517f08c379a00000000000000000000000000000000000000000000000000000000081526004016111ad9061300f565b60405180910390fd5b6000806111f46040518060400160405280858c600001516111d79190612a74565b8152602001858c602001516111ec9190612b43565b815250611285565b5091509150604051806040016040528083836112109190612b43565b8152602001848b602001516112259190612b43565b81525085858151811061123b5761123a6129aa565b5b60200260200101819052506001846112539190612b43565b935080826112619190612b43565b8361126c9190612b43565b92505050611167565b8183528295505050505050919050565b6000806000808460000151116112d0576040517f08c379a00000000000000000000000000000000000000000000000000000000081526004016112c79061307b565b60405180910390fd5b6000846020015190506000815160001a9050607f81116112fd576000600160009450945094505050611597565b60b7811161136f5760006080826113149190612a74565b90508087600001511161135c576040517f08c379a0000000000000000000000000000000000000000000000000000000008152600401611353906130e7565b60405180910390fd5b6001816000955095509550505050611597565b60bf811161145057600060b7826113869190612a74565b9050808760000151116113ce576040517f08c379a00000000000000000000000000000000000000000000000000000000081526004016113c590613153565b60405180910390fd5b6000816020036101000a600185015104905080826113ec9190612b43565b886000015111611431576040517f08c379a0000000000000000000000000000000000000000000000000000000008152600401611428906131bf565b60405180910390fd5b81600161143e9190612b43565b81600096509650965050505050611597565b60f781116114c257600060c0826114679190612a74565b9050808760000151116114af576040517f08c379a00000000000000000000000000000000000000000000000000000000081526004016114a69061322b565b60405180910390fd5b6001816001955095509550505050611597565b600060f7826114d19190612a74565b905080876000015111611519576040517f08c379a000000000000000000000000000000000000000000000000000000000815260040161151090613297565b60405180910390fd5b6000816020036101000a600185015104905080826115379190612b43565b88600001511161157c576040517f08c379a000000000000000000000000000000000000000000000000000000000815260040161157390613303565b60405180910390fd5b8160016115899190612b43565b816001965096509650505050505b9193909250565b606060008267ffffffffffffffff8111156115bc576115bb611e5d565b5b6040519080825280601f01601f1916602001820160405280156115ee5781602001600182028036833780820191505090505b509050600081511415611604578091505061169d565b600084866116129190612b43565b9050600060208301905060005b60208661162c9190613323565b81101561166857825182526020836116449190612b43565b92506020826116539190612b43565b9150808061166090612c05565b91505061161f565b50600060016020878161167e5761167d612d9f565b5b066020036101000a039050808251168119845116178252839450505050505b9392505050565b60606000600283516116b69190613354565b67ffffffffffffffff8111156116cf576116ce611e5d565b5b6040519080825280601f01601f1916602001820160405280156117015781602001600182028036833780820191505090505b50905060005b835181101561183f576004848281518110611725576117246129aa565b5b602001015160f81c60f81b7effffffffffffffffffffffffffffffffffffffffffffffffffffffffffffff1916901c826002836117629190613354565b81518110611773576117726129aa565b5b60200101907effffffffffffffffffffffffffffffffffffffffffffffffffffffffffffff1916908160001a90535060108482815181106117b7576117b66129aa565b5b602001015160f81c60f81b60f81c6117cf9190612dce565b60f81b8260016002846117e29190613354565b6117ec9190612b43565b815181106117fd576117fc6129aa565b5b60200101907effffffffffffffffffffffffffffffffffffffffffffffffffffffffffffff1916908160001a905350808061183790612c05565b915050611707565b5080915050919050565b6000602082511015611867576000602083015190508091505061187e565b8180602001905181019061187b91906133c3565b90505b919050565b600060606020836000015110156118a45761189d836119fe565b90506118b0565b6118ad83610a51565b90505b6118b981611849565b915050919050565b60606118f36118ee83602001516000815181106118e1576118e06129aa565b5b6020026020010151610a51565b6116a4565b9050919050565b60608251821061191b57604051806020016040528060008152509050611935565b611932838384865161192d9190612a74565b611a10565b90505b92915050565b600080600090505b8084511180156119535750808351115b80156119dc575082818151811061196d5761196c6129aa565b5b602001015160f81c60f81b7effffffffffffffffffffffffffffffffffffffffffffffffffffffffffffff19168482815181106119ad576119ac6129aa565b5b602001015160f81c60f81b7effffffffffffffffffffffffffffffffffffffffffffffffffffffffffffff1916145b156119f45780806119ec90612c05565b915050611943565b8091505092915050565b6060611a0982611b7c565b9050919050565b606081601f83611a209190612b43565b1015611a61576040517f08c379a0000000000000000000000000000000000000000000000000000000008152600401611a589061343c565b60405180910390fd5b828284611a6e9190612b43565b1015611aaf576040517f08c379a0000000000000000000000000000000000000000000000000000000008152600401611aa69061343c565b60405180910390fd5b8183611abb9190612b43565b84511015611afe576040517f08c379a0000000000000000000000000000000000000000000000000000000008152600401611af5906134a8565b60405180910390fd5b6060821560008114611b1f5760405191506000825260208201604052611b70565b6040519150601f8416801560200281840101858101878315602002848b0101015b81831015611b5d5780518352602083019250602081019050611b40565b50868552601f19601f8301166040525050505b50809150509392505050565b6060611b9282602001516000846000015161159e565b9050919050565b6040518060800160405280600081526020016000815260200160008019168152602001600080191681525090565b604051806040016040528060008152602001600081525090565b604051806040016040528060608152602001606081525090565b600081519050919050565b600082825260208201905092915050565b60005b83811015611c35578082015181840152602081019050611c1a565b83811115611c44576000848401525b50505050565b6000601f19601f8301169050919050565b6000611c6682611bfb565b611c708185611c06565b9350611c80818560208601611c17565b611c8981611c4a565b840191505092915050565b60006020820190508181036000830152611cae8184611c5b565b905092915050565b600073ffffffffffffffffffffffffffffffffffffffff82169050919050565b6000819050919050565b6000611cfb611cf6611cf184611cb6565b611cd6565b611cb6565b9050919050565b6000611d0d82611ce0565b9050919050565b6000611d1f82611d02565b9050919050565b611d2f81611d14565b82525050565b6000602082019050611d4a6000830184611d26565b92915050565b6000604051905090565b600080fd5b600080fd5b6000819050919050565b611d7781611d64565b8114611d8257600080fd5b50565b600081359050611d9481611d6e565b92915050565b600060208284031215611db057611daf611d5a565b5b6000611dbe84828501611d85565b91505092915050565b600081519050919050565b600082825260208201905092915050565b6000611dee82611dc7565b611df88185611dd2565b9350611e08818560208601611c17565b611e1181611c4a565b840191505092915050565b60006040820190508181036000830152611e368185611de3565b90508181036020830152611e4a8184611c5b565b90509392505050565b600080fd5b600080fd5b7f4e487b7100000000000000000000000000000000000000000000000000000000600052604160045260246000fd5b611e9582611c4a565b810181811067ffffffffffffffff82111715611eb457611eb3611e5d565b5b80604052505050565b6000611ec7611d50565b9050611ed38282611e8c565b919050565b600067ffffffffffffffff821115611ef357611ef2611e5d565b5b611efc82611c4a565b9050602081019050919050565b82818337600083830152505050565b6000611f2b611f2684611ed8565b611ebd565b905082815260208101848484011115611f4757611f46611e58565b5b611f52848285611f09565b509392505050565b600082601f830112611f6f57611f6e611e53565b5b8135611f7f848260208601611f18565b91505092915050565b600060208284031215611f9e57611f9d611d5a565b5b600082013567ffffffffffffffff811115611fbc57611fbb611d5f565b5b611fc884828501611f5a565b91505092915050565b6000611fdc82611cb6565b9050919050565b611fec81611fd1565b82525050565b60006020820190506120076000830184611fe3565b92915050565b600080fd5b600080fd5b6000819050919050565b61202a81612017565b811461203557600080fd5b50565b60008135905061204781612021565b92915050565b600067ffffffffffffffff82111561206857612067611e5d565b5b61207182611c4a565b9050602081019050919050565b600061209161208c8461204d565b611ebd565b9050828152602081018484840111156120ad576120ac611e58565b5b6120b8848285611f09565b509392505050565b600082601f8301126120d5576120d4611e53565b5b81356120e584826020860161207e565b91505092915050565b600060a082840312156121045761210361200d565b5b61210e60a0611ebd565b9050600061211e84828501612038565b600083015250602061213284828501611d85565b602083015250604061214684828501612038565b604083015250606061215a84828501612038565b606083015250608082013567ffffffffffffffff81111561217e5761217d612012565b5b61218a848285016120c0565b60808301525092915050565b600067ffffffffffffffff8211156121b1576121b0611e5d565b5b602082029050602081019050919050565b600080fd5b60006121da6121d584612196565b611ebd565b905080838252602082019050602084028301858111156121fd576121fc6121c2565b5b835b8181101561222657806122128882611d85565b8452602084019350506020810190506121ff565b5050509392505050565b600082601f83011261224557612244611e53565b5b81356122558482602086016121c7565b91505092915050565b6000604082840312156122745761227361200d565b5b61227e6040611ebd565b9050600061228e84828501612038565b600083015250602082013567ffffffffffffffff8111156122b2576122b1612012565b5b6122be84828501612230565b60208301525092915050565b600060a082840312156122e0576122df61200d565b5b6122ea60a0611ebd565b905060006122fa84828501611d85565b600083015250602082013567ffffffffffffffff81111561231e5761231d612012565b5b61232a848285016120ee565b602083015250604082013567ffffffffffffffff81111561234e5761234d612012565b5b61235a8482850161225e565b604083015250606082013567ffffffffffffffff81111561237e5761237d612012565b5b61238a848285016120c0565b606083015250608082013567ffffffffffffffff8111156123ae576123ad612012565b5b6123ba848285016120c0565b60808301525092915050565b600080604083850312156123dd576123dc611d5a565b5b60006123eb85828601611d85565b925050602083013567ffffffffffffffff81111561240c5761240b611d5f565b5b612418858286016122ca565b9150509250929050565b7f4e487b7100000000000000000000000000000000000000000000000000000000600052602260045260246000fd5b6000600282049050600182168061246957607f821691505b6020821081141561247d5761247c612422565b5b50919050565b61248c81611d64565b82525050565b60006020820190506124a76000830184612483565b92915050565b6124b681611fd1565b81146124c157600080fd5b50565b6000815190506124d3816124ad565b92915050565b6000602082840312156124ef576124ee611d5a565b5b60006124fd848285016124c4565b91505092915050565b7f496e76616c696420737461746520726f6f740000000000000000000000000000600082015250565b600061253c601283611c06565b915061254782612506565b602082019050919050565b6000602082019050818103600083015261256b8161252f565b9050919050565b6000819050919050565b61258d61258882611d64565b612572565b82525050565b6000819050919050565b6125ae6125a982612017565b612593565b82525050565b60006125c0828561257c565b6020820191506125d0828461259d565b6020820191508190509392505050565b6125e981612017565b82525050565b6125f881611d64565b82525050565b600082825260208201905092915050565b600061261a82611dc7565b61262481856125fe565b9350612634818560208601611c17565b61263d81611c4a565b840191505092915050565b600060a08301600083015161266060008601826125e0565b50602083015161267360208601826125ef565b50604083015161268660408601826125e0565b50606083015161269960608601826125e0565b50608083015184820360808601526126b1828261260f565b9150508091505092915050565b600081519050919050565b600082825260208201905092915050565b6000819050602082019050919050565b60006126f683836125ef565b60208301905092915050565b6000602082019050919050565b600061271a826126be565b61272481856126c9565b935061272f836126da565b8060005b8381101561276057815161274788826126ea565b975061275283612702565b925050600181019050612733565b5085935050505092915050565b600060408301600083015161278560008601826125e0565b506020830151848203602086015261279d828261270f565b9150508091505092915050565b60006060820190506127bf6000830186612483565b81810360208301526127d18185612648565b905081810360408301526127e5818461276d565b9050949350505050565b60008115159050919050565b612804816127ef565b811461280f57600080fd5b50565b600081519050612821816127fb565b92915050565b60006020828403121561283d5761283c611d5a565b5b600061284b84828501612812565b91505092915050565b60008160601b9050919050565b600061286c82612854565b9050919050565b600061287e82612861565b9050919050565b61289661289182611fd1565b612873565b82525050565b60006128a88284612885565b60148201915081905092915050565b7f4163636f756e7420646f6573206e6f7420657869737400000000000000000000600082015250565b60006128ed601683611c06565b91506128f8826128b7565b602082019050919050565b6000602082019050818103600083015261291c816128e0565b9050919050565b600061292f828461257c565b60208201915081905092915050565b7f53746f726167652076616c756520646f6573206e6f7420657869737400000000600082015250565b6000612974601c83611c06565b915061297f8261293e565b602082019050919050565b600060208201905081810360008301526129a381612967565b9050919050565b7f4e487b7100000000000000000000000000000000000000000000000000000000600052603260045260246000fd5b7f50726f76696465642070726f6f6620697320696e76616c69642e000000000000600082015250565b6000612a0f601a83611c06565b9150612a1a826129d9565b602082019050919050565b60006020820190508181036000830152612a3e81612a02565b9050919050565b7f4e487b7100000000000000000000000000000000000000000000000000000000600052601160045260246000fd5b6000612a7f82612017565b9150612a8a83612017565b925082821015612a9d57612a9c612a45565b5b828203905092915050565b7f496e76616c696420524c5020627974657333322076616c75652e000000000000600082015250565b6000612ade601a83611c06565b9150612ae982612aa8565b602082019050919050565b60006020820190508181036000830152612b0d81612ad1565b9050919050565b7f4e487b7100000000000000000000000000000000000000000000000000000000600052602160045260246000fd5b6000612b4e82612017565b9150612b5983612017565b9250827fffffffffffffffffffffffffffffffffffffffffffffffffffffffffffffffff03821115612b8e57612b8d612a45565b5b828201905092915050565b7f496e76616c696420524c502062797465732076616c75652e0000000000000000600082015250565b6000612bcf601883611c06565b9150612bda82612b99565b602082019050919050565b60006020820190508181036000830152612bfe81612bc2565b9050919050565b6000612c1082612017565b91507fffffffffffffffffffffffffffffffffffffffffffffffffffffffffffffffff821415612c4357612c42612a45565b5b600182019050919050565b7f496e76616c696420726f6f742068617368000000000000000000000000000000600082015250565b6000612c84601183611c06565b9150612c8f82612c4e565b602082019050919050565b60006020820190508181036000830152612cb381612c77565b9050919050565b7f496e76616c6964206c6172676520696e7465726e616c20686173680000000000600082015250565b6000612cf0601b83611c06565b9150612cfb82612cba565b602082019050919050565b60006020820190508181036000830152612d1f81612ce3565b9050919050565b7f496e76616c696420696e7465726e616c206e6f64652068617368000000000000600082015250565b6000612d5c601a83611c06565b9150612d6782612d26565b602082019050919050565b60006020820190508181036000830152612d8b81612d4f565b9050919050565b600060ff82169050919050565b7f4e487b7100000000000000000000000000000000000000000000000000000000600052601260045260246000fd5b6000612dd982612d92565b9150612de483612d92565b925082612df457612df3612d9f565b5b828206905092915050565b6000612e0a82612d92565b9150612e1583612d92565b925082821015612e2857612e27612a45565b5b828203905092915050565b7f52656365697665642061206e6f6465207769746820616e20756e6b6e6f776e2060008201527f7072656669780000000000000000000000000000000000000000000000000000602082015250565b6000612e8f602683611c06565b9150612e9a82612e33565b604082019050919050565b60006020820190508181036000830152612ebe81612e82565b9050919050565b7f526563656976656420616e20756e706172736561626c65206e6f64652e000000600082015250565b6000612efb601d83611c06565b9150612f0682612ec5565b602082019050919050565b60006020820190508181036000830152612f2a81612eee565b9050919050565b7f496e76616c696420524c50206c6973742076616c75652e000000000000000000600082015250565b6000612f67601783611c06565b9150612f7282612f31565b602082019050919050565b60006020820190508181036000830152612f9681612f5a565b9050919050565b7f50726f766964656420524c50206c6973742065786365656473206d6178206c6960008201527f7374206c656e6774682e00000000000000000000000000000000000000000000602082015250565b6000612ff9602a83611c06565b915061300482612f9d565b604082019050919050565b6000602082019050818103600083015261302881612fec565b9050919050565b7f524c50206974656d2063616e6e6f74206265206e756c6c2e0000000000000000600082015250565b6000613065601883611c06565b91506130708261302f565b602082019050919050565b6000602082019050818103600083015261309481613058565b9050919050565b7f496e76616c696420524c502073686f727420737472696e672e00000000000000600082015250565b60006130d1601983611c06565b91506130dc8261309b565b602082019050919050565b60006020820190508181036000830152613100816130c4565b9050919050565b7f496e76616c696420524c50206c6f6e6720737472696e67206c656e6774682e00600082015250565b600061313d601f83611c06565b915061314882613107565b602082019050919050565b6000602082019050818103600083015261316c81613130565b9050919050565b7f496e76616c696420524c50206c6f6e6720737472696e672e0000000000000000600082015250565b60006131a9601883611c06565b91506131b482613173565b602082019050919050565b600060208201905081810360008301526131d88161319c565b9050919050565b7f496e76616c696420524c502073686f7274206c6973742e000000000000000000600082015250565b6000613215601783611c06565b9150613220826131df565b602082019050919050565b6000602082019050818103600083015261324481613208565b9050919050565b7f496e76616c696420524c50206c6f6e67206c697374206c656e6774682e000000600082015250565b6000613281601d83611c06565b915061328c8261324b565b602082019050919050565b600060208201905081810360008301526132b081613274565b9050919050565b7f496e76616c696420524c50206c6f6e67206c6973742e00000000000000000000600082015250565b60006132ed601683611c06565b91506132f8826132b7565b602082019050919050565b6000602082019050818103600083015261331c816132e0565b9050919050565b600061332e82612017565b915061333983612017565b92508261334957613348612d9f565b5b828204905092915050565b600061335f82612017565b915061336a83612017565b9250817fffffffffffffffffffffffffffffffffffffffffffffffffffffffffffffffff04831182151516156133a3576133a2612a45565b5b828202905092915050565b6000815190506133bd81611d6e565b92915050565b6000602082840312156133d9576133d8611d5a565b5b60006133e7848285016133ae565b91505092915050565b7f736c6963655f6f766572666c6f77000000000000000000000000000000000000600082015250565b6000613426600e83611c06565b9150613431826133f0565b602082019050919050565b6000602082019050818103600083015261345581613419565b9050919050565b7f736c6963655f6f75744f66426f756e6473000000000000000000000000000000600082015250565b6000613492601183611c06565b915061349d8261345c565b602082019050919050565b600060208201905081810360008301526134c181613485565b905091905056fea2646970667358221220edf9b4c2ef33a2f21bde28791a28029b20f2aed4813830527d21e3fa9495b1ed64736f6c63430008090033",
  "linkReferences": {},
  "deployedLinkReferences": {}
}