{
  "_format": "hh-sol-artifact-1",
  "contractName": "StateCommitmentChain",
  "sourceName": "@eth-optimism/contracts/L1/rollup/StateCommitmentChain.sol",
  "abi": [
    {
      "inputs": [
        {
          "internalType": "address",
          "name": "_libAddressManager",
          "type": "address"
        },
        {
          "internalType": "uint256",
          "name": "_fraudProofWindow",
          "type": "uint256"
        },
        {
          "internalType": "uint256",
          "name": "_sequencerPublishWindow",
          "type": "uint256"
        }
      ],
      "stateMutability": "nonpayable",
      "type": "constructor"
    },
    {
      "anonymous": false,
      "inputs": [
        {
          "indexed": true,
          "internalType": "uint256",
          "name": "_batchIndex",
          "type": "uint256"
        },
        {
          "indexed": false,
          "internalType": "bytes32",
          "name": "_batchRoot",
          "type": "bytes32"
        },
        {
          "indexed": false,
          "internalType": "uint256",
          "name": "_batchSize",
          "type": "uint256"
        },
        {
          "indexed": false,
          "internalType": "uint256",
          "name": "_prevTotalElements",
          "type": "uint256"
        },
        {
          "indexed": false,
          "internalType": "bytes",
          "name": "_extraData",
          "type": "bytes"
        }
      ],
      "name": "StateBatchAppended",
      "type": "event"
    },
    {
      "anonymous": false,
      "inputs": [
        {
          "indexed": true,
          "internalType": "uint256",
          "name": "_batchIndex",
          "type": "uint256"
        },
        {
          "indexed": false,
          "internalType": "bytes32",
          "name": "_batchRoot",
          "type": "bytes32"
        }
      ],
      "name": "StateBatchDeleted",
      "type": "event"
    },
    {
      "inputs": [],
      "name": "FRAUD_PROOF_WINDOW",
      "outputs": [
        {
          "internalType": "uint256",
          "name": "",
          "type": "uint256"
        }
      ],
      "stateMutability": "view",
      "type": "function"
    },
    {
      "inputs": [],
      "name": "SEQUENCER_PUBLISH_WINDOW",
      "outputs": [
        {
          "internalType": "uint256",
          "name": "",
          "type": "uint256"
        }
      ],
      "stateMutability": "view",
      "type": "function"
    },
    {
      "inputs": [
        {
          "internalType": "bytes32[]",
          "name": "_batch",
          "type": "bytes32[]"
        },
        {
          "internalType": "uint256",
          "name": "_shouldStartAtElement",
          "type": "uint256"
        }
      ],
      "name": "appendStateBatch",
      "outputs": [],
      "stateMutability": "nonpayable",
      "type": "function"
    },
    {
      "inputs": [],
      "name": "batches",
      "outputs": [
        {
          "internalType": "contract IChainStorageContainer",
          "name": "",
          "type": "address"
        }
      ],
      "stateMutability": "view",
      "type": "function"
    },
    {
      "inputs": [
        {
          "components": [
            {
              "internalType": "uint256",
              "name": "batchIndex",
              "type": "uint256"
            },
            {
              "internalType": "bytes32",
              "name": "batchRoot",
              "type": "bytes32"
            },
            {
              "internalType": "uint256",
              "name": "batchSize",
              "type": "uint256"
            },
            {
              "internalType": "uint256",
              "name": "prevTotalElements",
              "type": "uint256"
            },
            {
              "internalType": "bytes",
              "name": "extraData",
              "type": "bytes"
            }
          ],
          "internalType": "struct Lib_OVMCodec.ChainBatchHeader",
          "name": "_batchHeader",
          "type": "tuple"
        }
      ],
      "name": "deleteStateBatch",
      "outputs": [],
      "stateMutability": "nonpayable",
      "type": "function"
    },
    {
      "inputs": [],
      "name": "getLastSequencerTimestamp",
      "outputs": [
        {
          "internalType": "uint256",
          "name": "_lastSequencerTimestamp",
          "type": "uint256"
        }
      ],
      "stateMutability": "view",
      "type": "function"
    },
    {
      "inputs": [],
      "name": "getTotalBatches",
      "outputs": [
        {
          "internalType": "uint256",
          "name": "_totalBatches",
          "type": "uint256"
        }
      ],
      "stateMutability": "view",
      "type": "function"
    },
    {
      "inputs": [],
      "name": "getTotalElements",
      "outputs": [
        {
          "internalType": "uint256",
          "name": "_totalElements",
          "type": "uint256"
        }
      ],
      "stateMutability": "view",
      "type": "function"
    },
    {
      "inputs": [
        {
          "components": [
            {
              "internalType": "uint256",
              "name": "batchIndex",
              "type": "uint256"
            },
            {
              "internalType": "bytes32",
              "name": "batchRoot",
              "type": "bytes32"
            },
            {
              "internalType": "uint256",
              "name": "batchSize",
              "type": "uint256"
            },
            {
              "internalType": "uint256",
              "name": "prevTotalElements",
              "type": "uint256"
            },
            {
              "internalType": "bytes",
              "name": "extraData",
              "type": "bytes"
            }
          ],
          "internalType": "struct Lib_OVMCodec.ChainBatchHeader",
          "name": "_batchHeader",
          "type": "tuple"
        }
      ],
      "name": "insideFraudProofWindow",
      "outputs": [
        {
          "internalType": "bool",
          "name": "_inside",
          "type": "bool"
        }
      ],
      "stateMutability": "view",
      "type": "function"
    },
    {
      "inputs": [],
      "name": "libAddressManager",
      "outputs": [
        {
          "internalType": "contract Lib_AddressManager",
          "name": "",
          "type": "address"
        }
      ],
      "stateMutability": "view",
      "type": "function"
    },
    {
      "inputs": [
        {
          "internalType": "string",
          "name": "_name",
          "type": "string"
        }
      ],
      "name": "resolve",
      "outputs": [
        {
          "internalType": "address",
          "name": "",
          "type": "address"
        }
      ],
      "stateMutability": "view",
      "type": "function"
    },
    {
      "inputs": [
        {
          "internalType": "bytes32",
          "name": "_element",
          "type": "bytes32"
        },
        {
          "components": [
            {
              "internalType": "uint256",
              "name": "batchIndex",
              "type": "uint256"
            },
            {
              "internalType": "bytes32",
              "name": "batchRoot",
              "type": "bytes32"
            },
            {
              "internalType": "uint256",
              "name": "batchSize",
              "type": "uint256"
            },
            {
              "internalType": "uint256",
              "name": "prevTotalElements",
              "type": "uint256"
            },
            {
              "internalType": "bytes",
              "name": "extraData",
              "type": "bytes"
            }
          ],
          "internalType": "struct Lib_OVMCodec.ChainBatchHeader",
          "name": "_batchHeader",
          "type": "tuple"
        },
        {
          "components": [
            {
              "internalType": "uint256",
              "name": "index",
              "type": "uint256"
            },
            {
              "internalType": "bytes32[]",
              "name": "siblings",
              "type": "bytes32[]"
            }
          ],
          "internalType": "struct Lib_OVMCodec.ChainInclusionProof",
          "name": "_proof",
          "type": "tuple"
        }
      ],
      "name": "verifyStateCommitment",
      "outputs": [
        {
          "internalType": "bool",
          "name": "",
          "type": "bool"
        }
      ],
      "stateMutability": "view",
      "type": "function"
    }
  ],
  "bytecode": "0x60806040523480156200001157600080fd5b5060405162002f9738038062002f97833981810160405281019062000037919062000135565b82806000806101000a81548173ffffffffffffffffffffffffffffffffffffffff021916908373ffffffffffffffffffffffffffffffffffffffff16021790555050816001819055508060028190555050505062000191565b600080fd5b600073ffffffffffffffffffffffffffffffffffffffff82169050919050565b6000620000c28262000095565b9050919050565b620000d481620000b5565b8114620000e057600080fd5b50565b600081519050620000f481620000c9565b92915050565b6000819050919050565b6200010f81620000fa565b81146200011b57600080fd5b50565b6000815190506200012f8162000104565b92915050565b60008060006060848603121562000151576200015062000090565b5b60006200016186828701620000e3565b935050602062000174868287016200011e565b925050604062000187868287016200011e565b9150509250925092565b612df680620001a16000396000f3fe608060405234801561001057600080fd5b50600436106100b45760003560e01c80638ca5cbb9116100715780638ca5cbb9146101915780639418bddd146101ad578063b8e189ac146101dd578063c17b291b146101f9578063cfdf677e14610217578063e561dddc14610235576100b4565b8063299ca478146100b9578063461a4478146100d75780634d69ee57146101075780637aa63a86146101375780637ad168a01461015557806381eb62ef14610173575b600080fd5b6100c1610253565b6040516100ce9190611725565b60405180910390f35b6100f160048036038101906100ec919061189a565b610277565b6040516100fe9190611904565b60405180910390f35b610121600480360381019061011c9190611c12565b61032a565b60405161012e9190611cb8565b60405180910390f35b61013f6103db565b60405161014c9190611ce2565b60405180910390f35b61015d6103f7565b60405161016a9190611ce2565b60405180910390f35b61017b610413565b6040516101889190611ce2565b60405180910390f35b6101ab60048036038101906101a69190611cfd565b610419565b005b6101c760048036038101906101c29190611d59565b6106ea565b6040516101d49190611cb8565b60405180910390f35b6101f760048036038101906101f29190611d59565b610764565b005b6102016108ab565b60405161020e9190611ce2565b60405180910390f35b61021f6108b1565b60405161022c9190611dc3565b60405180910390f35b61023d6108d9565b60405161024a9190611ce2565b60405180910390f35b60008054906101000a900473ffffffffffffffffffffffffffffffffffffffff1681565b60008060009054906101000a900473ffffffffffffffffffffffffffffffffffffffff1673ffffffffffffffffffffffffffffffffffffffff1663bf40fac1836040518263ffffffff1660e01b81526004016102d39190611e66565b60206040518083038186803b1580156102eb57600080fd5b505afa1580156102ff573d6000803e3d6000fd5b505050506040513d601f19601f820116820180604052508101906103239190611eb4565b9050919050565b600061033583610965565b610374576040517f08c379a000000000000000000000000000000000000000000000000000000000815260040161036b90611f2d565b60405180910390fd5b610391836020015185846000015185602001518760400151610a0c565b6103d0576040517f08c379a00000000000000000000000000000000000000000000000000000000081526004016103c790611f99565b60405180910390fd5b600190509392505050565b6000806103e6610bb3565b5090508064ffffffffff1691505090565b600080610402610bb3565b9150508064ffffffffff1691505090565b60025481565b6104216103db565b8114610462576040517f08c379a00000000000000000000000000000000000000000000000000000000081526004016104599061202b565b60405180910390fd5b6104a06040518060400160405280600b81526020017f426f6e644d616e61676572000000000000000000000000000000000000000000815250610277565b73ffffffffffffffffffffffffffffffffffffffff166302ad4d2a336040518263ffffffff1660e01b81526004016104d89190611904565b60206040518083038186803b1580156104f057600080fd5b505afa158015610504573d6000803e3d6000fd5b505050506040513d601f19601f820116820180604052508101906105289190612077565b610567576040517f08c379a000000000000000000000000000000000000000000000000000000000815260040161055e90612116565b60405180910390fd5b60008251116105ab576040517f08c379a00000000000000000000000000000000000000000000000000000000081526004016105a2906121a8565b60405180910390fd5b6105e96040518060400160405280601981526020017f43616e6f6e6963616c5472616e73616374696f6e436861696e00000000000000815250610277565b73ffffffffffffffffffffffffffffffffffffffff16637aa63a866040518163ffffffff1660e01b815260040160206040518083038186803b15801561062e57600080fd5b505afa158015610642573d6000803e3d6000fd5b505050506040513d601f19601f8201168201806040525081019061066691906121dd565b82516106706103db565b61067a9190612239565b11156106bb576040517f08c379a00000000000000000000000000000000000000000000000000000000081526004016106b290612327565b60405180910390fd5b6106e68242336040516020016106d2929190612347565b604051602081830303815290604052610c87565b5050565b600080826080015180602001905181019061070591906123ae565b509050600081141561074c576040517f08c379a000000000000000000000000000000000000000000000000000000000815260040161074390612460565b60405180910390fd5b426001548261075b9190612239565b11915050919050565b6107a26040518060400160405280601181526020017f4f564d5f46726175645665726966696572000000000000000000000000000000815250610277565b73ffffffffffffffffffffffffffffffffffffffff163373ffffffffffffffffffffffffffffffffffffffff161461080f576040517f08c379a0000000000000000000000000000000000000000000000000000000008152600401610806906124f2565b60405180910390fd5b61081881610965565b610857576040517f08c379a000000000000000000000000000000000000000000000000000000000815260040161084e90611f2d565b60405180910390fd5b610860816106ea565b61089f576040517f08c379a000000000000000000000000000000000000000000000000000000000815260040161089690612584565b60405180910390fd5b6108a881610e9f565b50565b60015481565b60006108d4604051806060016040528060218152602001612da060219139610277565b905090565b60006108e36108b1565b73ffffffffffffffffffffffffffffffffffffffff16631f7b6d326040518163ffffffff1660e01b815260040160206040518083038186803b15801561092857600080fd5b505afa15801561093c573d6000803e3d6000fd5b505050506040513d601f19601f8201168201806040525081019061096091906121dd565b905090565b600061096f6108b1565b73ffffffffffffffffffffffffffffffffffffffff16639507d39a83600001516040518263ffffffff1660e01b81526004016109ab9190611ce2565b60206040518083038186803b1580156109c357600080fd5b505afa1580156109d7573d6000803e3d6000fd5b505050506040513d601f19601f820116820180604052508101906109fb91906125b9565b610a048361107a565b149050919050565b6000808211610a50576040517f08c379a0000000000000000000000000000000000000000000000000000000008152600401610a4790612658565b60405180910390fd5b818410610a92576040517f08c379a0000000000000000000000000000000000000000000000000000000008152600401610a89906126ea565b60405180910390fd5b610a9b826110c0565b835114610add576040517f08c379a0000000000000000000000000000000000000000000000000000000008152600401610ad4906127a2565b60405180910390fd5b600085905060005b8451811015610ba35760018087161415610b4357848181518110610b0c57610b0b6127c2565b5b602002602001015182604051602001610b26929190612812565b604051602081830303815290604052805190602001209150610b89565b81858281518110610b5757610b566127c2565b5b6020026020010151604051602001610b70929190612812565b6040516020818303038152906040528051906020012091505b600186901c95508080610b9b9061283e565b915050610ae5565b5080871491505095945050505050565b6000806000610bc06108b1565b73ffffffffffffffffffffffffffffffffffffffff1663ccf8f9696040518163ffffffff1660e01b815260040160206040518083038186803b158015610c0557600080fd5b505afa158015610c19573d6000803e3d6000fd5b505050506040513d601f19601f82011682018060405250810190610c3d91906128df565b90506000808260281c925064ffffffffff831691507fffffffffffffffffffffffffffffffffffffffffffffffffffffff0000000000831660281c90508181945094505050509091565b6000610cc76040518060400160405280600c81526020017f4f564d5f50726f706f7365720000000000000000000000000000000000000000815250610277565b9050600080610cd4610bb3565b915091508273ffffffffffffffffffffffffffffffffffffffff163373ffffffffffffffffffffffffffffffffffffffff161415610d1457429050610d6b565b426002548264ffffffffff16610d2a9190612239565b10610d6a576040517f08c379a0000000000000000000000000000000000000000000000000000000008152600401610d61906129a4565b60405180910390fd5b5b60006040518060a00160405280610d806108d9565b8152602001610d8e88611190565b8152602001875181526020018464ffffffffff16815260200186815250905080600001517f16be4c5129a4e03cf3350262e181dc02ddfb4a6008d925368c0899fcd97ca9c58260200151836040015184606001518560800151604051610df79493929190612a28565b60405180910390a2610e076108b1565b73ffffffffffffffffffffffffffffffffffffffff16632015276c610e2b8361107a565b610e4884604001518560600151610e429190612239565b86611688565b6040518363ffffffff1660e01b8152600401610e65929190612a83565b600060405180830381600087803b158015610e7f57600080fd5b505af1158015610e93573d6000803e3d6000fd5b50505050505050505050565b610ea76108b1565b73ffffffffffffffffffffffffffffffffffffffff16631f7b6d326040518163ffffffff1660e01b815260040160206040518083038186803b158015610eec57600080fd5b505afa158015610f00573d6000803e3d6000fd5b505050506040513d601f19601f82011682018060405250810190610f2491906121dd565b816000015110610f69576040517f08c379a0000000000000000000000000000000000000000000000000000000008152600401610f6090612af8565b60405180910390fd5b610f7281610965565b610fb1576040517f08c379a0000000000000000000000000000000000000000000000000000000008152600401610fa890611f2d565b60405180910390fd5b610fb96108b1565b73ffffffffffffffffffffffffffffffffffffffff1663167fd6818260000151610fe884606001516000611688565b6040518363ffffffff1660e01b8152600401611005929190612b18565b600060405180830381600087803b15801561101f57600080fd5b505af1158015611033573d6000803e3d6000fd5b5050505080600001517f8747b69ce8fdb31c3b9b0a67bd8049ad8c1a69ea417b69b12174068abd9cbd64826020015160405161106f9190612b41565b60405180910390a250565b600081602001518260400151836060015184608001516040516020016110a39493929190612a28565b604051602081830303815290604052805190602001209050919050565b6000808211611104576040517f08c379a00000000000000000000000000000000000000000000000000000000081526004016110fb90612bce565b60405180910390fd5b6001821415611116576000905061118b565b6000829050600080608090505b60018110611169576000816001836001901b61113f9190612bee565b901b84161461115d5780826111549190612239565b91508083901c92505b600181901c9050611123565b5083816001901b14611185576001816111829190612239565b90505b80925050505b919050565b6000808251116111d5576040517f08c379a00000000000000000000000000000000000000000000000000000000081526004016111cc90612c94565b60405180910390fd5b60018251141561120257816000815181106111f3576111f26127c2565b5b60200260200101519050611683565b60006040518061020001604052807f290decd9548b62a8d60345a988386fc84ba6bc95484008f6362f93160ef3e56381526020017f633dc4d7da7256660a892f8f1604a44b5432649cc8ec5cb3ced4c4e6ac94dd1d81526020017f890740a8eb06ce9be422cb8da5cdafc2b58c0a5e24036c578de2a433c828ff7d81526020017f3b8ec09e026fdc305365dfc94e189a81b38c7597b3d941c279f042e8206e0bd881526020017fecd50eee38e386bd62be9bedb990706951b65fe053bd9d8a521af753d139e2da81526020017fdefff6d330bb5403f63b14f33b578274160de3a50df4efecf0e0db73bcdd3da581526020017f617bdd11f7c0a11f49db22f629387a12da7596f9d1704d7465177c63d88ec7d781526020017f292c23a9aa1d8bea7e2435e555a4a60e379a5a35f3f452bae60121073fb6eead81526020017fe1cea92ed99acdcb045a6726b2f87107e8a61620a232cf4d7d5b5766b3952e1081526020017f7ad66c0a68c72cb89e4fb4303841966e4062a76ab97451e3b9fb526a5ceb7f8281526020017fe026cc5a4aed3c22a58cbd3d2ac754c9352c5436f638042dca99034e8363651681526020017f3d04cffd8b46a874edf5cfae63077de85f849a660426697b06a829c70dd1409c81526020017fad676aa337a485e4728a0b240d92b3ef7b3c372d06d189322bfd5f61f1e7203e81526020017fa2fca4a49658f9fab7aa63289c91b7c7b6c832a6d0e69334ff5b0a3483d09dab81526020017f4ebfd9cd7bca2505f7bef59cc1c12ecc708fff26ae4af19abe852afe9e20c86281526020017f2def10d13dd169f550f578bda343d9717a138562e0093b380a1120789d53cf1081525090506000604067ffffffffffffffff81111561148d5761148c61176f565b5b6040519080825280601f01601f1916602001820160405280156114bf5781602001600182028036833780820191505090505b509050600080600086519050600080805b600184111561165c576002846114e69190612ce3565b915060016002856114f79190612d14565b14905060005b828110156115a9578a8160026115139190612d45565b81518110611524576115236127c2565b5b602002602001015196508a600182600261153e9190612d45565b6115489190612239565b81518110611559576115586127c2565b5b6020026020010151955086602089015285604089015287805190602001208b828151811061158a576115896127c2565b5b60200260200101818152505080806115a19061283e565b9150506114fd565b50801561162a57896001856115be9190612bee565b815181106115cf576115ce6127c2565b5b602002602001015195508783601081106115ec576115eb6127c2565b5b602002015160001b945085602088015284604088015286805190602001208a838151811061161d5761161c6127c2565b5b6020026020010181815250505b80611636576000611639565b60015b60ff16826116479190612239565b935082806116549061283e565b9350506114d0565b896000815181106116705761166f6127c2565b5b6020026020010151985050505050505050505b919050565b6000808390508260281b811790508060281b90508091505092915050565b600073ffffffffffffffffffffffffffffffffffffffff82169050919050565b6000819050919050565b60006116eb6116e66116e1846116a6565b6116c6565b6116a6565b9050919050565b60006116fd826116d0565b9050919050565b600061170f826116f2565b9050919050565b61171f81611704565b82525050565b600060208201905061173a6000830184611716565b92915050565b6000604051905090565b600080fd5b600080fd5b600080fd5b600080fd5b6000601f19601f8301169050919050565b7f4e487b7100000000000000000000000000000000000000000000000000000000600052604160045260246000fd5b6117a78261175e565b810181811067ffffffffffffffff821117156117c6576117c561176f565b5b80604052505050565b60006117d9611740565b90506117e5828261179e565b919050565b600067ffffffffffffffff8211156118055761180461176f565b5b61180e8261175e565b9050602081019050919050565b82818337600083830152505050565b600061183d611838846117ea565b6117cf565b90508281526020810184848401111561185957611858611759565b5b61186484828561181b565b509392505050565b600082601f83011261188157611880611754565b5b813561189184826020860161182a565b91505092915050565b6000602082840312156118b0576118af61174a565b5b600082013567ffffffffffffffff8111156118ce576118cd61174f565b5b6118da8482850161186c565b91505092915050565b60006118ee826116a6565b9050919050565b6118fe816118e3565b82525050565b600060208201905061191960008301846118f5565b92915050565b6000819050919050565b6119328161191f565b811461193d57600080fd5b50565b60008135905061194f81611929565b92915050565b600080fd5b600080fd5b6000819050919050565b6119728161195f565b811461197d57600080fd5b50565b60008135905061198f81611969565b92915050565b600067ffffffffffffffff8211156119b0576119af61176f565b5b6119b98261175e565b9050602081019050919050565b60006119d96119d484611995565b6117cf565b9050828152602081018484840111156119f5576119f4611759565b5b611a0084828561181b565b509392505050565b600082601f830112611a1d57611a1c611754565b5b8135611a2d8482602086016119c6565b91505092915050565b600060a08284031215611a4c57611a4b611955565b5b611a5660a06117cf565b90506000611a6684828501611980565b6000830152506020611a7a84828501611940565b6020830152506040611a8e84828501611980565b6040830152506060611aa284828501611980565b606083015250608082013567ffffffffffffffff811115611ac657611ac561195a565b5b611ad284828501611a08565b60808301525092915050565b600067ffffffffffffffff821115611af957611af861176f565b5b602082029050602081019050919050565b600080fd5b6000611b22611b1d84611ade565b6117cf565b90508083825260208201905060208402830185811115611b4557611b44611b0a565b5b835b81811015611b6e5780611b5a8882611940565b845260208401935050602081019050611b47565b5050509392505050565b600082601f830112611b8d57611b8c611754565b5b8135611b9d848260208601611b0f565b91505092915050565b600060408284031215611bbc57611bbb611955565b5b611bc660406117cf565b90506000611bd684828501611980565b600083015250602082013567ffffffffffffffff811115611bfa57611bf961195a565b5b611c0684828501611b78565b60208301525092915050565b600080600060608486031215611c2b57611c2a61174a565b5b6000611c3986828701611940565b935050602084013567ffffffffffffffff811115611c5a57611c5961174f565b5b611c6686828701611a36565b925050604084013567ffffffffffffffff811115611c8757611c8661174f565b5b611c9386828701611ba6565b9150509250925092565b60008115159050919050565b611cb281611c9d565b82525050565b6000602082019050611ccd6000830184611ca9565b92915050565b611cdc8161195f565b82525050565b6000602082019050611cf76000830184611cd3565b92915050565b60008060408385031215611d1457611d1361174a565b5b600083013567ffffffffffffffff811115611d3257611d3161174f565b5b611d3e85828601611b78565b9250506020611d4f85828601611980565b9150509250929050565b600060208284031215611d6f57611d6e61174a565b5b600082013567ffffffffffffffff811115611d8d57611d8c61174f565b5b611d9984828501611a36565b91505092915050565b6000611dad826116f2565b9050919050565b611dbd81611da2565b82525050565b6000602082019050611dd86000830184611db4565b92915050565b600081519050919050565b600082825260208201905092915050565b60005b83811015611e18578082015181840152602081019050611dfd565b83811115611e27576000848401525b50505050565b6000611e3882611dde565b611e428185611de9565b9350611e52818560208601611dfa565b611e5b8161175e565b840191505092915050565b60006020820190508181036000830152611e808184611e2d565b905092915050565b611e91816118e3565b8114611e9c57600080fd5b50565b600081519050611eae81611e88565b92915050565b600060208284031215611eca57611ec961174a565b5b6000611ed884828501611e9f565b91505092915050565b7f496e76616c6964206261746368206865616465722e0000000000000000000000600082015250565b6000611f17601583611de9565b9150611f2282611ee1565b602082019050919050565b60006020820190508181036000830152611f4681611f0a565b9050919050565b7f496e76616c696420696e636c7573696f6e2070726f6f662e0000000000000000600082015250565b6000611f83601883611de9565b9150611f8e82611f4d565b602082019050919050565b60006020820190508181036000830152611fb281611f76565b9050919050565b7f41637475616c20626174636820737461727420696e64657820646f6573206e6f60008201527f74206d6174636820657870656374656420737461727420696e6465782e000000602082015250565b6000612015603d83611de9565b915061202082611fb9565b604082019050919050565b6000602082019050818103600083015261204481612008565b9050919050565b61205481611c9d565b811461205f57600080fd5b50565b6000815190506120718161204b565b92915050565b60006020828403121561208d5761208c61174a565b5b600061209b84828501612062565b91505092915050565b7f50726f706f73657220646f6573206e6f74206861766520656e6f75676820636f60008201527f6c6c61746572616c20706f737465640000000000000000000000000000000000602082015250565b6000612100602f83611de9565b915061210b826120a4565b604082019050919050565b6000602082019050818103600083015261212f816120f3565b9050919050565b7f43616e6e6f74207375626d697420616e20656d7074792073746174652062617460008201527f63682e0000000000000000000000000000000000000000000000000000000000602082015250565b6000612192602383611de9565b915061219d82612136565b604082019050919050565b600060208201905081810360008301526121c181612185565b9050919050565b6000815190506121d781611969565b92915050565b6000602082840312156121f3576121f261174a565b5b6000612201848285016121c8565b91505092915050565b7f4e487b7100000000000000000000000000000000000000000000000000000000600052601160045260246000fd5b60006122448261195f565b915061224f8361195f565b9250827fffffffffffffffffffffffffffffffffffffffffffffffffffffffffffffffff038211156122845761228361220a565b5b828201905092915050565b7f4e756d626572206f6620737461746520726f6f74732063616e6e6f742065786360008201527f65656420746865206e756d626572206f662063616e6f6e6963616c207472616e60208201527f73616374696f6e732e0000000000000000000000000000000000000000000000604082015250565b6000612311604983611de9565b915061231c8261228f565b606082019050919050565b6000602082019050818103600083015261234081612304565b9050919050565b600060408201905061235c6000830185611cd3565b61236960208301846118f5565b9392505050565b600061237b826116a6565b9050919050565b61238b81612370565b811461239657600080fd5b50565b6000815190506123a881612382565b92915050565b600080604083850312156123c5576123c461174a565b5b60006123d3858286016121c8565b92505060206123e485828601612399565b9150509250929050565b7f4261746368206865616465722074696d657374616d702063616e6e6f7420626560008201527f207a65726f000000000000000000000000000000000000000000000000000000602082015250565b600061244a602583611de9565b9150612455826123ee565b604082019050919050565b600060208201905081810360008301526124798161243d565b9050919050565b7f537461746520626174636865732063616e206f6e6c792062652064656c65746560008201527f6420627920746865204f564d5f467261756456657269666965722e0000000000602082015250565b60006124dc603b83611de9565b91506124e782612480565b604082019050919050565b6000602082019050818103600083015261250b816124cf565b9050919050565b7f537461746520626174636865732063616e206f6e6c792062652064656c65746560008201527f642077697468696e207468652066726175642070726f6f662077696e646f772e602082015250565b600061256e604083611de9565b915061257982612512565b604082019050919050565b6000602082019050818103600083015261259d81612561565b9050919050565b6000815190506125b381611929565b92915050565b6000602082840312156125cf576125ce61174a565b5b60006125dd848285016125a4565b91505092915050565b7f4c69625f4d65726b6c65547265653a20546f74616c206c6561766573206d757360008201527f742062652067726561746572207468616e207a65726f2e000000000000000000602082015250565b6000612642603783611de9565b915061264d826125e6565b604082019050919050565b6000602082019050818103600083015261267181612635565b9050919050565b7f4c69625f4d65726b6c65547265653a20496e646578206f7574206f6620626f7560008201527f6e64732e00000000000000000000000000000000000000000000000000000000602082015250565b60006126d4602483611de9565b91506126df82612678565b604082019050919050565b60006020820190508181036000830152612703816126c7565b9050919050565b7f4c69625f4d65726b6c65547265653a20546f74616c207369626c696e6773206460008201527f6f6573206e6f7420636f72726563746c7920636f72726573706f6e6420746f2060208201527f746f74616c206c65617665732e00000000000000000000000000000000000000604082015250565b600061278c604d83611de9565b91506127978261270a565b606082019050919050565b600060208201905081810360008301526127bb8161277f565b9050919050565b7f4e487b7100000000000000000000000000000000000000000000000000000000600052603260045260246000fd5b6000819050919050565b61280c6128078261191f565b6127f1565b82525050565b600061281e82856127fb565b60208201915061282e82846127fb565b6020820191508190509392505050565b60006128498261195f565b91507fffffffffffffffffffffffffffffffffffffffffffffffffffffffffffffffff82141561287c5761287b61220a565b5b600182019050919050565b60007fffffffffffffffffffffffffffffffffffffffffffffffffffffff000000000082169050919050565b6128bc81612887565b81146128c757600080fd5b50565b6000815190506128d9816128b3565b92915050565b6000602082840312156128f5576128f461174a565b5b6000612903848285016128ca565b91505092915050565b7f43616e6e6f74207075626c69736820737461746520726f6f747320776974686960008201527f6e207468652073657175656e636572207075626c69636174696f6e2077696e6460208201527f6f772e0000000000000000000000000000000000000000000000000000000000604082015250565b600061298e604383611de9565b91506129998261290c565b606082019050919050565b600060208201905081810360008301526129bd81612981565b9050919050565b6129cd8161191f565b82525050565b600081519050919050565b600082825260208201905092915050565b60006129fa826129d3565b612a0481856129de565b9350612a14818560208601611dfa565b612a1d8161175e565b840191505092915050565b6000608082019050612a3d60008301876129c4565b612a4a6020830186611cd3565b612a576040830185611cd3565b8181036060830152612a6981846129ef565b905095945050505050565b612a7d81612887565b82525050565b6000604082019050612a9860008301856129c4565b612aa56020830184612a74565b9392505050565b7f496e76616c696420626174636820696e6465782e000000000000000000000000600082015250565b6000612ae2601483611de9565b9150612aed82612aac565b602082019050919050565b60006020820190508181036000830152612b1181612ad5565b9050919050565b6000604082019050612b2d6000830185611cd3565b612b3a6020830184612a74565b9392505050565b6000602082019050612b5660008301846129c4565b92915050565b7f4c69625f4d65726b6c65547265653a2043616e6e6f7420636f6d70757465206360008201527f65696c286c6f675f3229206f6620302e00000000000000000000000000000000602082015250565b6000612bb8603083611de9565b9150612bc382612b5c565b604082019050919050565b60006020820190508181036000830152612be781612bab565b9050919050565b6000612bf98261195f565b9150612c048361195f565b925082821015612c1757612c1661220a565b5b828203905092915050565b7f4c69625f4d65726b6c65547265653a204d7573742070726f766964652061742060008201527f6c65617374206f6e65206c65616620686173682e000000000000000000000000602082015250565b6000612c7e603483611de9565b9150612c8982612c22565b604082019050919050565b60006020820190508181036000830152612cad81612c71565b9050919050565b7f4e487b7100000000000000000000000000000000000000000000000000000000600052601260045260246000fd5b6000612cee8261195f565b9150612cf98361195f565b925082612d0957612d08612cb4565b5b828204905092915050565b6000612d1f8261195f565b9150612d2a8361195f565b925082612d3a57612d39612cb4565b5b828206905092915050565b6000612d508261195f565b9150612d5b8361195f565b9250817fffffffffffffffffffffffffffffffffffffffffffffffffffffffffffffffff0483118215151615612d9457612d9361220a565b5b82820290509291505056fe436861696e53746f72616765436f6e7461696e65722d5343432d62617463686573a26469706673582212204c999a02b4932288c25dacf79b4bc1a6dcdcce19e48a0fb65d7aa9696f94f3ad64736f6c63430008090033",
  "linkReferences": {},
  "deployedLinkReferences": {}
}